:020000020000FC
:040000000C941E003E
:040010000C945400F8
:100038000C9445000DE304B90FEF05B978EC02E024
:1000480004BD05E005BD0EE307BD02E000936E00A8
:1000580000E007B902E00093680006E000936C0036
:1000680090E030E0789400E007B900E90AB95F98B9
:100078005C9800E060E000E010E020E030E0000084
:10008800FECF4FB70E94A100A0E09A137A9511F411
:100098000E9450004FBF18959A130E94C8000895F7
:1000A8004FB7319B04C0329B06C04FBF18958FEFE6
:1000B80098274FBF189500E010E020E030E04FBFD0
:1000C80018950E946D00AB2F0E946D005C9A5C9899
:1000D8000895C8E05F98A69510F0289801C0289A5E
:1000E8005F9ACA95B9F70895A03099F0A13099F0B0
:1000F800A23099F0A33099F0A43099F0A53099F086
:10010800A63099F0A73099F0A83099F0A93099F065
:100118000895A3E00895AFE90895A5E20895ADE034
:100128000895A9E90895A9E40895A1E40895AFE11F
:100138000895A1E00895A9E008956395613039F024
:10014800623061F0633089F06430B1F00895A02F17
:100158000E947800B0E10E9465000895A12F0E94D6
:100168007800B0E20E9465000895A22F0E947800EE
:10017800B0E40E946500089560E0A32F0E94780013
:10018800B0E80E946500089578EC03950A3009F0FC
:10019800089500E01395163009F0089510E02395AE
:1001A8002A3009F0089520E03395363009F0089593
:0A01B80000E010E020E030E00895C0
:00000001FF
