S01700004763634170706C69636174696F6E312E737265635B
S11300000C9434000C9451000C9451000C94510045
S11300100C9451000C9451000C9451000C94510018
S11300200C9451000C9451000C9451000C94510008
S11300300C9451000C9451000C9451000C945100F8
S11300400C9451000C9451000C9451000C945100E8
S11300500C9451000C9451000C9451000C945100D8
S11300600C9451000C94510011241FBECFEFD8E022
S1130070DEBFCDBF11E0A0E0B1E0ECE8F3E002C0E8
S113008005900D92A230B107D9F721E0A2E0B1E0CA
S113009001C01D92A231B207E1F70E94A8000C949E
S11300A0C4010C9400000E946C0010E10E945900ED
S11300B008950E946100012F0E9461005C9A5C987F
S11300C0089528E05F98069510F0289801C0289AB2
S11300D05F9A2A95B9F70895003099F0013099F0A4
S11300E0023099F0033099F0043099F0053099F01A
S11300F0063099F0073099F0083099F0093099F0FA
S1130100089503E008950FE9089505E208950DE0C8
S1130110089509E9089509E4089501E408950FE1B3
S1130120089501E0089509E0089580E480937C0037
S113013087EC80937A0010927B00089581E084B963
S11301408DE385B980E98AB98BB181708BB9089543
S11301500E9495000E949E0080917A0086FD96C0C0
S113016008E710E0F80180819181019642E3489FFD
S11301709001499F300D1124D32FD695D695C0E018
S1130180D0930E01C0930F018081918101969C014F
S1130190220F331F220F331F820F931F892F86953F
S11301A086958093100110921101408151814F5F17
S11301B05F4FCA01880F991F880F991F480F591F55
S11301C09A013695279536952795ABE7B4E10E94B9
S11301D0A101BC017695679524E6269FC001279F5F
S11301E0900D1124BA01681B790B80E090E00E9405
S11301F0500160930A0170930B0180930C0190935A
S11302000D01F801208131812F5F3F4FC901880F13
S1130210991F880F991F280F391F369527953695F2
S11302202795ABE7B4E10E94A10196958795909339
S11302300901809308018D2F9C2F68EE73E00E94C2
S11302408D0124E630E0B9010E948D01709307010D
S1130250609306018D2F9C2FB9010E948D012AE025
S113026030E0B9010E948D0170930501609304018F
S11302708D2F9C2FB9010E948D01909303018093CF
S11302800201EAE7F0E0808180648083E09100016C
S1130290F09101018091100180830E9453005CCF92
S11302A0E89409C097FB3EF490958095709561950C
S11302B07F4F8F4F9F4F9923A9F0F92F96E9BB27C2
S11302C09395F695879577956795B795F111F8CF3E
S11302D0FAF4BB0F11F460FF1BC06F5F7F4F8F4FA9
S11302E09F4F16C0882311F096E911C0772321F09F
S11302F09EE8872F762F05C0662371F096E8862F37
S113030070E060E02AF09A95660F771F881FDAF78D
S1130310880F9695879597F9089597FB072E16F4FD
S1130320009407D077FD09D00E94B00107FC05D0E6
S11303303EF4909581959F4F0895709561957F4FF8
S11303400895A29FB001B39FC001A39F700D811DAA
S11303501124911DB29F700D811D1124911D0895CA
S1130360AA1BBB1B51E107C0AA1FBB1FA617B707D7
S113037010F0A61BB70B881F991F5A95A9F78095F3
S10F03809095BC01CD010895F894FFCFC6
S105038C10005B
S9030000FC
