:100000000C9434000C9451000C9451000C94510049
:100010000C9451000C9451000C9451000C9451001C
:100020000C9451000C9451000C9451000C9451000C
:100030000C9451000C9451000C9451000C945100FC
:100040000C9451000C9451000C9451000C945100EC
:100050000C9451000C9451000C9451000C945100DC
:100060000C9451000C94510011241FBECFEFD8E026
:10007000DEBFCDBF11E0A0E0B1E0E6EAF1E002C0F2
:1000800005900D92A230B107D9F721E0A2E0B1E0CE
:1000900001C01D92A430B207E1F70E94A8000C94A1
:1000A000D1000C9400000E946C0010E10E945900E5
:1000B00008950E946100012F0E9461005C9A5C9883
:1000C000089528E05F98069510F0289801C0289AB6
:1000D0005F9A2A95B9F70895003099F0013099F0A8
:1000E000023099F0033099F0043099F0053099F01E
:1000F000063099F0073099F0083099F0093099F0FE
:10010000089503E008950FE9089505E208950DE0CC
:10011000089509E9089509E4089501E408950FE1B7
:10012000089501E0089509E0089580E480937C003B
:1001300087EC80937A0010927B00089581E084B967
:100140008DE385B980E98AB98BB181708BB9089547
:100150000E9495000E949E0080917A0086FD17C043
:1001600080917800909179009C01220F331F220F1B
:10017000331F820F931F892F8695869580930201E6
:1001800010920301EAE7F0E0808180648083E091CF
:100190000001F09101018091020180830E945300CF
:0601A000DBCFF894FFCF55
:0201A600100047
:00000001FF
